{
  "contractName": "DeadmansSwitch",
  "abi": [
    {
      "payable": true,
      "stateMutability": "payable",
      "type": "fallback"
    },
    {
      "constant": false,
      "inputs": [
        {
          "internalType": "address",
          "name": "_nextToKin",
          "type": "address"
        }
      ],
      "name": "register",
      "outputs": [],
      "payable": false,
      "stateMutability": "nonpayable",
      "type": "function"
    },
    {
      "constant": true,
      "inputs": [],
      "name": "getData",
      "outputs": [
        {
          "internalType": "address",
          "name": "",
          "type": "address"
        },
        {
          "internalType": "address",
          "name": "",
          "type": "address"
        }
      ],
      "payable": false,
      "stateMutability": "view",
      "type": "function"
    },
    {
      "constant": false,
      "inputs": [],
      "name": "still_alive",
      "outputs": [],
      "payable": false,
      "stateMutability": "nonpayable",
      "type": "function"
    },
    {
      "constant": false,
      "inputs": [],
      "name": "drainIfDead",
      "outputs": [],
      "payable": false,
      "stateMutability": "nonpayable",
      "type": "function"
    }
  ],
  "bytecode": "0x608060405234801561001057600080fd5b506102d6806100206000396000f3fe60806040526004361061003f5760003560e01c80633bc5de30146100415780633d58225a146100cb5780634420e486146100e2578063eea089ab14610133575b005b34801561004d57600080fd5b5061005661014a565b604051808373ffffffffffffffffffffffffffffffffffffffff1673ffffffffffffffffffffffffffffffffffffffff1681526020018273ffffffffffffffffffffffffffffffffffffffff1673ffffffffffffffffffffffffffffffffffffffff1681526020019250505060405180910390f35b3480156100d757600080fd5b506100e061019d565b005b3480156100ee57600080fd5b506101316004803603602081101561010557600080fd5b81019080803573ffffffffffffffffffffffffffffffffffffffff1690602001909291905050506101a6565b005b34801561013f57600080fd5b5061014861022a565b005b6000806000809054906101000a900473ffffffffffffffffffffffffffffffffffffffff16600160009054906101000a900473ffffffffffffffffffffffffffffffffffffffff16809050915091509091565b42600281905550565b80600160006101000a81548173ffffffffffffffffffffffffffffffffffffffff021916908373ffffffffffffffffffffffffffffffffffffffff160217905550336000806101000a81548173ffffffffffffffffffffffffffffffffffffffff021916908373ffffffffffffffffffffffffffffffffffffffff16021790555050565b6102586002541061029f57600160009054906101000a900473ffffffffffffffffffffffffffffffffffffffff1673ffffffffffffffffffffffffffffffffffffffff166108fc479081150290604051600060405180830381858888f1935050505015801561029d573d6000803e3d6000fd5b505b56fea265627a7a723158205faf47f936933decf7a870b663b69a38fcd4fde93034a22932eeba65f9a9546364736f6c63430005100032",
  "source": "pragma solidity =0.5.16;\r\n\r\ncontract DeadmansSwitch {\r\n    address owner;\r\n    address payable nextToKin;\r\n    uint256 lastActive;\r\n\r\n    //accept money from owner\r\n    function() external payable {}\r\n\r\n    //register owner\r\n    function register(address _nextToKin) public {\r\n        nextToKin = address(uint160(_nextToKin));\r\n        owner = msg.sender;\r\n    }\r\n\r\n    function getData() public view returns (address, address) {\r\n        return (owner, nextToKin);\r\n    }\r\n\r\n    //note as still alive()\r\n    function still_alive() public {\r\n        lastActive = block.timestamp;\r\n    }\r\n\r\n    // delete if time exceeded\r\n    function drainIfDead() public {\r\n        if (lastActive >= 10 minutes) {\r\n            nextToKin.transfer(address(this).balance);\r\n        }\r\n    }\r\n}\r\n",
  "sourcePath": "D:\\Code\\NodeJS\\Ethereum-India-Fellowship\\week-2\\the-deadmans-switch\\contracts\\DeadmansSwitch.sol",
  "compiler": {
    "name": "solc",
    "version": "0.5.16+commit.9c3226ce.Emscripten.clang"
  },
  "schemaVersion": "3.2.0",
  "updatedAt": "2020-06-21T06:17:28.479Z",
  "networkType": "ethereum",
  "devdoc": {
    "methods": {}
  },
  "userdoc": {
    "methods": {}
  }
}